#sudo acpidump -s

ACPI: SSDT 0x0000000000000000 000781 (v01 INTEL  Tpm2Tabl 00001000 INTL 20160422)
ACPI: MCFG 0x0000000000000000 00003C (v01 INSYDE CNLH     00000001 ACPI 00040000)
ACPI: ASF! 0x0000000000000000 0000A5 (v32 INSYDE CNLH     00000001 ACPI 00040000)
ACPI: APIC 0x0000000000000000 00012C (v03 INSYDE CNLH     00000001 ACPI 00040000)
ACPI: SSDT 0x0000000000000000 003146 (v02 SaSsdt SaSsdt   00003000 INTL 20160422)
ACPI: TPM2 0x0000000000000000 000034 (v04 INSYDE CNLH     00000002 ACPI 00040000)
ACPI: DSDT 0x0000000000000000 02EBBE (v02 INSYDE CNLH     00000000 ACPI 00040000)
ACPI: SSDT 0x0000000000000000 0035D8 (v01 Insyde NvdTable 00001000 INTL 20160422)
ACPI: WSMT 0x0000000000000000 000028 (v01 INSYDE CNLH     00000002 ACPI 00040000)
ACPI: LPIT 0x0000000000000000 00005C (v01 INSYDE CNLH     00000002 ACPI 00040000)
ACPI: SSDT 0x0000000000000000 00166A (v02 INTEL  PtidDevc 00001000 INTL 20160422)
ACPI: UEFI 0x0000000000000000 000236 (v01 INSYDE CNLH     00000001 ACPI 00040000)
ACPI: DBG2 0x0000000000000000 000061 (v00 INSYDE CNLH     00000002 ACPI 00040000)
ACPI: SSDT 0x0000000000000000 00188F (v02 PegSsd PegSsdt  00001000 INTL 20160422)
ACPI: DMAR 0x0000000000000000 0000A8 (v01 INSYDE CNLH     00000002 ACPI 00040000)
ACPI: FACP 0x0000000000000000 00010C (v05 INSYDE CNLH     00000001 ACPI 00040000)
ACPI: FPDT 0x0000000000000000 000044 (v01 INSYDE CNLH     00000002 ACPI 00040000)
ACPI: SSDT 0x0000000000000000 001B1C (v02 CpuRef CpuSsdt  00003000 INTL 20160422)
ACPI: SSDT 0x0000000000000000 0000F4 (v02 PmRef  Cpu0Psd  00003000 INTL 20160422)
ACPI: DBGP 0x0000000000000000 000034 (v01 INSYDE CNLH     00000002 ACPI 00040000)
ACPI: HPET 0x0000000000000000 000038 (v01 INSYDE CNLH     00000001 ACPI 00040000)
ACPI: SSDT 0x0000000000000000 00045A (v02 Intel  PerfTune 00001000 INTL 20160422)
ACPI: UEFI 0x0000000000000000 000042 (v01 INSYDE CNLH     00000002 ACPI 00040000)
ACPI: FACS 0x0000000000000000 000040
ACPI: BGRT 0x0000000000000000 000038 (v01 INSYDE CNLH     00000001 ACPI 00040000)
ACPI: SSDT 0x0000000000000000 000400 (v02 PmRef  Cpu0Cst  00003001 INTL 20160422)
ACPI: SSDT 0x0000000000000000 000AB0 (v02 PmRef  ApPsd    00003000 INTL 20160422)
ACPI: SSDT 0x0000000000000000 000581 (v02 PmRef  Cpu0Ist  00003000 INTL 20160422)
ACPI: SSDT 0x0000000000000000 00030A (v02 PmRef  ApCst    00003000 INTL 20160422)
ACPI: SSDT 0x0000000000000000 0005FC (v02 PmRef  ApIst    00003000 INTL 20160422)
